:100000000C9456000C9460000C9460000C946000FA
:100010000C9460000C9460000C9460000C946000E0
:100020000C9460000C9460000C9460000C946000D0
:100030000C9460000C9460000C9460000C946000C0
:100040000C9460000C9460000C9460000C946000B0
:100050000C9460000C9460000C9460000C946000A0
:100060000C9460000C9460000C9460000C94600090
:100070000C9460000C9460000C9460000C94600080
:100080000C9460000C9460000C9460000C94600070
:100090000C9460000C9460000C9460000C94600060
:1000A0000C9460000C9460000C94600011241FBE3E
:1000B000CFEFDAE0DEBFCDBF0E9462000C948C026D
:1000C0000C940000CF93DF93CDB7DEB72E970FB619
:1000D000F894DEBF0FBECDBF8DE290E02DE230E0A0
:1000E000F90120812064FC0120838EE290E02EE261
:1000F00030E0F90120812F7BFC0120830E94570111
:1001000084E790E00E943E0180E090E0AAE7B4E43A
:1001100089839A83AB83BC8320E030E04AE755E4CF
:1001200069817A818B819C810E94F701DC01CB017E
:100130008D839E83AF83B88720E030E040E85FE3A3
:100140006D817E818F8198850E94710188232CF4B6
:1001500081E090E09A8789873FC020E03FEF4FE73A
:1001600057E46D817E818F8198850E94F201181677
:100170004CF520E030E040E251E469817A818B81E6
:100180009C810E94F701DC01CB01BC01CD010E94E2
:100190007601DC01CB019A8789870FC080E991E065
:1001A0009C878B878B859C850197F1F79C878B8734
:1001B00089859A8501979A87898789859A85892B68
:1001C00069F714C06D817E818F8198850E947601C8
:1001D000DC01CB019A87898789859A859E878D87DF
:1001E0008D859E850197F1F79E878D8789CFCF9367
:1001F000DF93CDB7DEB78AE790E02AE730E0F90178
:1002000020812064FC012083DF91CF910895CF935A
:10021000DF93CDB7DEB78CE790E025E4FC012083C7
:100220008AE790E02FE8FC0120838EE790E020E24F
:10023000FC0120830E94F700DF91CF910895CF93B6
:10024000DF93CDB7DEB78AE790E02AE730E0F90127
:1002500020812064FC01208300008AE790E0FC01FB
:100260008081882F90E080749927892BB1F789E7E6
:1002700090E0FC018081DF91CF910895CF93DF93CF
:100280001F92CDB7DEB789838EEC90E02981FC0107
:1002900020838EE290E02EE230E0F901308120E40C
:1002A0002327FC0120830F90DF91CF910895CF93F6
:1002B000DF93CDB7DEB78DEC90E0FC0110828CECC3
:1002C00090E027E6FC01208389EC90E028E0FC0127
:1002D00020838AEC90E02EE0FC012083DF91CF9117
:1002E00008950E94A50108F481E008950E94D101BB
:1002F00088F09F5798F0B92F9927B751B0F0E1F0E7
:10030000660F771F881F991F1AF0BA95C9F714C096
:10031000B13091F00E94EB01B1E008950C94EB0133
:10032000672F782F8827B85F39F0B93FCCF38695CF
:1003300077956795B395D9F73EF49095809570952C
:1003400061957F4F8F4F9F4F0895990F0008550F6C
:10035000AA0BE0E8FEEF16161706E807F907C0F04B
:1003600012161306E407F50798F0621B730B840B53
:10037000950B39F40A2661F0232B242B252B21F42D
:1003800008950A2609F4A140A6958FEF811D811DCD
:10039000089557FD9058440F551F59F05F3F71F075
:1003A0004795880F97FB991F61F09F3F79F08795DC
:1003B0000895121613061406551FF2CF4695F1DF65
:1003C00008C0161617061806991FF1CF86957105F5
:1003D000610508940895E894BB2766277727CB0129
:1003E00097F908950E94A50108F48FEF08950E94DF
:1003F0000A020C947B020E946D0238F00E94740283
:1004000020F0952311F00C9464020C946A021124DC
:100410000C94EC010E94C90170F3959FC1F3950FF4
:1004200050E0551F629FF001729FBB27F00DB11D78
:10043000639FAA27F00DB11DAA1F649F6627B00D08
:10044000A11D661F829F2227B00DA11D621F739FF1
:10045000B00DA11D621F839FA00D611D221F749FFF
:100460003327A00D611D231F849F600D211D822F46
:10047000762F6A2F11249F5750409AF0F1F088236D
:100480004AF0EE0FFF1FBB1F661F771F881F91509A
:100490005040A9F79E3F510580F00C9464020C94E3
:1004A000EC015F3FE4F3983ED4F38695779567952A
:1004B000B795F795E7959F5FC1F7FE2B880F911DC4
:1004C0009695879597F9089597F99F6780E870E06A
:1004D00060E008959FEF80EC089500240A941616BA
:1004E000170618060906089500240A941216130622
:1004F000140605060895092E0394000C11F48823B0
:1005000052F0BB0F40F4BF2B11F460FF04C06F5FCB
:0C0510007F4F8F4F9F4F0895F894FFCF4E
:00000001FF
