:100000000C94C9010C94E6010C94E6010C94E601F1
:100010000C94E6010C94E6010C94E6010C94E601C4
:100020000C94E6010C94E6010C94E6010C94E601B4
:100030000C94E6010C94E6010C94E6010C94E601A4
:100040000C94E6010C94E6010C94E6010C94E60194
:100050000C94E6010C94E6010C94E6010C94E60184
:100060000C94E6010C94E6010C94E6010C94E60174
:100070000C94E6010C94E6010C94E6010C94E60164
:100080000C94E6010C94E6010C94E6010C94E60154
:100090000C94E6010C94E6010C94E6010C94E60144
:1000A0000C94E6010C94E6010C94E6015374617221
:1000B00074696E67206164766572746973696E67CE
:1000C0000D0A0050697065206E6F74206F70656E48
:1000D0000D0A004F70656E2050697065733A2000FC
:1000E000436F6E6E656374696F6E2066726F6D3AF2
:1000F0002000526563656976656420756E68616E7F
:10010000646C656420646174613A200054656D70AC
:10011000657261747572653A200020430D0A000013
:100120000706000003024207000000000000000074
:1001300000000000000000000000000000000000BF
:10014000001F061000010000000000020002010173
:100150000000060001000000000000000000000098
:1001600000001F06101C000000000000000000003E
:10017000000000000000000000000000005003909C
:1001800001FF001F061038FFFF02580A050000009B
:10019000000000001000000000000000000000004F
:1001A00000000000050610540000000000000000E0
:1001B000000000000000000000000000000000003F
:1001C00000000000001F06200004040202000128B5
:1001D00000010018040405050002280301020300C1
:1001E000002A040414001F06201C0B00032A00012F
:1001F000415652206E524638303031636F6D0000E8
:10020000000000000404001F062038050500042833
:100210000301020500012A0604030200052A010168
:1002200000000404050500001F06205406280301F1
:10023000020700042A0604090800072A0401060030
:1002400006000000FFFF0404001F062070020200E9
:100250000828000101180404101000092800018179
:10026000F57438B32071AB434C001F06208C96C642
:1002700001A0154204041313000A280301060B0011
:1002800081F57438B32071AB434C001F0620A8964B
:10029000C601C0154246140201000BC00102000451
:1002A000041313000C280301100D00001F0620C4C6
:1002B00081F57438B32071AB434C96C602C0154229
:1002C00016000201000DC00202004614001F0620A5
:1002D000E00302000E290201000004041313000FC2
:1002E00028030102100081F57438B32071001A064A
:1002F00020FCAB434C96C600CF1542060405040013
:1003000010CF0002B00BFACE000000000000001772
:10031000064000C00102000804000B0000C00202F9
:10032000000204000D000E000000000000000000AC
:100330001306500081F57438B32071AB434C96C658
:100340000000154200000000000000000000000056
:10035000000906600000000000000000000000002E
:10036000000000000000000000000000000000008D
:1003700000000606F0000348EC000000000000004A
:10038000000000000000000000000000000000006D
:10039000000011241FBECFEFDAE0DEBFCDBF11E0B9
:1003A000A0E0B1E0E0EAFBE102C005900D92A831C7
:1003B000B107D9F721E0A8E1B1E001C01D92AF3B40
:1003C000B207E1F70E9445020C94CE0D0C94000098
:1003D000CF93DF93CDB7DEB78AE790E02AE730E02E
:1003E000F90120812064FC01208300008AE790E06D
:1003F000FC018081882F90E080749927892BB1F7C8
:1004000089E790E0FC018081DF91CF910895CF933F
:10041000DF9300D0CDB7DEB79A8389830BC0898183
:100420009A819C012F5F3F4F3A832983FC01808191
:100430000E943E0B89819A81FC018081882379F793
:1004400080E20E943E0B0F900F90DF91CF910895B4
:10045000CF93DF93CDB7DEB78CE790E021E2FC01CC
:1004600020838AE790E027E8FC0120838EE790E074
:1004700020E2FC012083DF91CF910895CF93DF9399
:10048000CDB7DEB7DF91CF910895CF93DF93CDB78E
:10049000DEB7A0970FB6F894DEBF0FBECDBF0E94A7
:1004A000B30A0E9428020E94830A0E94FE040E944E
:1004B000810389838981082E000C990BAA0BBB0B41
:1004C00041E0BC01CD010E94980B8BE60E943E0BDF
:1004D00080E38A830E94E8018A838A81882F90E0E2
:1004E0009E012F5E3F4F4AE050E0B9010E948E0D01
:1004F000CE0141960E94070280E090E0AAEFB3E4AB
:100500008B839C83AD83BE8320E030E04AE755E4D3
:100510006B817C818D819E810E94E90CDC01CB0185
:100520008F839887A987BA8720E030E040E85FE3AF
:100530006F81788589859A850E94630C88232CF4C5
:1005400081E090E09C878B873FC020E03FEF4FE742
:1005500057E46F81788589859A850E94E40C181686
:100560004CF520E030E040E251E46B817C818D81EC
:100570009E810E94E90CDC01CB01BC01CD010E94EF
:10058000680CDC01CB019C878B870FC080E991E070
:100590009E878D878D859E850197F1F79E878D8734
:1005A0008B859C8501979C878B878B859C85892B68
:1005B00069F714C06F81788589859A850E94680CD7
:1005C000DC01CB019C878B878B859C85988B8F87E3
:1005D0008F8598890197F1F7988B8F8776CFCF9386
:1005E000DF93CDB7DEB72E970FB6F894DEBF0FBE00
:1005F000CDBF85E290E025E230E0F90120812F7E39
:10060000FC01208380E090E0A0E2B1E489839A833A
:10061000AB83BC8320E030E04AE755E469817A810E
:100620008B819C810E94E90CDC01CB018D839E8330
:10063000AF83B88720E030E040E85FE36D817E81E2
:100640008F8198850E94630C88232CF481E090E0D0
:100650009A8789873FC020E03FEF4FE757E46D81DD
:100660007E818F8198850E94E40C18164CF520E05D
:1006700030E040E251E469817A818B819C810E9463
:10068000E90CDC01CB01BC01CD010E94680CDC014E
:10069000CB019A8789870FC080E991E09C878B877F
:1006A0008B859C850197F1F79C878B8789859A8537
:1006B00001979A87898789859A85892B69F714C05C
:1006C0006D817E818F8198850E94680CDC01CB0151
:1006D0009A87898789859A859E878D878D859E854E
:1006E0000197F1F79E878D87109218010E94810370
:1006F0002E960FB6F894DEBF0FBECDBFDF91CF911F
:100700000895CF93DF93CDB7DEB72F970FB6F89448
:10071000DEBF0FBECDBF85E290E025E230E0F901FB
:1007200020812061FC01208380E090E0A8ECB2E40D
:100730008A839B83AC83BD8320E030E04AE755E4A5
:100740006A817B818C819D810E94E90CDC01CB0157
:100750008E839F83A887B98720E030E040E85FE37D
:100760006E817F81888599850E94630C88232CF493
:1007700081E090E09B878A873FC020E03FEF4FE712
:1007800057E46E817F81888599850E94E40C181654
:100790004CF520E030E040E251E46A817B818C81BD
:1007A0009D810E94E90CDC01CB01BC01CD010E94BE
:1007B000680CDC01CB019B878A870FC080E991E040
:1007C0009D878C878C859D850197F1F79D878C8708
:1007D0008A859B8501979B878A878A859B85892B3C
:1007E00069F714C06E817F81888599850E94680CA5
:1007F000DC01CB019B878A878A859B859F878E87B3
:100800008E859F850197F1F79F878E8740E250E0A4
:1008100060E070E08FE991E00E94870D6FE971E080
:1008200080E090E00E947D068091A101813821F452
:100830008091A301882311F08FEFA4C08091A201C1
:10084000809319018091A40180931A01809119016C
:10085000823011F08EEF96C019823FC040E250E026
:1008600060E070E08FE991E00E94870D8981282F78
:1008700030E041E2429FC001439F900D1124019658
:10088000815E9E4F40E250E0BC0183E291E00E9415
:100890007E0D6FE971E083E291E00E947D06809118
:1008A000A001882329F48FE991E00E94CE0912C0AB
:1008B0008FE991E00E94CE098091A101843841F432
:1008C0008091A201863021F48091A301813011F042
:1008D0008DEF58C089818F5F89838981833108F4C6
:1008E000BDCF40E250E060E070E08FE991E00E940F
:1008F000870D6FE971E080E090E00E947D068FE94E
:1009000091E00E94CE098091A101843841F4809148
:10091000A201863021F48091A301813011F38091EE
:10092000A101843841F48091A201863021F48091A4
:10093000A301823011F08CEF25C040E250E060E06E
:1009400070E08FE991E00E94870D6FE971E080E02F
:1009500090E00E947D068091A101813871F78FE9B6
:1009600091E00E94CE098091A301882311F08BEFC2
:1009700009C08091A201809319018091A401809304
:100980001A0180E02F960FB6F894DEBF0FBECDBFE0
:10099000DF91CF910895CF93DF9300D000D0CDB7F2
:1009A000DEB740E250E060E070E083E291E00E9458
:1009B000870D1A82198280E890E09C838B8385E002
:1009C000809323018FE08093240189818093250106
:1009D0008A81809326018B81809327018C8180936B
:1009E000280160E070E083E291E00E947D060F90B4
:1009F0000F900F900F90DF91CF9108952F923F921B
:100A00004F925F926F927F928F929F92AF92BF921E
:100A1000CF92DF92EF92FF920F931F93CF93DF93CA
:100A20001F92CDB7DEB7198267C0E981AE2FB0E063
:100A3000FD01EE0FFF1FEA0FFB1FE050FF4FE081AB
:100A4000E13009F056C0E981AE2FB0E0FD01EE0FB4
:100A5000FF1FEA0FFB1FEF5FFE4F0190F081E02DBB
:100A6000329709F046C0E981EE2FF0E0DF011196E0
:100A7000E1E0F0E002C0EE0FFF1FAA95E2F71F01D0
:100A8000EF2FEE0FEE0B4E2E5E2E6E2E7E2E8E2E46
:100A90009E2EA0909701B0909801C0909901D0909F
:100AA0009A01E0909B01F0909C0100919D011091B2
:100AB0009E01222D2A29332D3B29442D4C29552DC9
:100AC0005D29662D6E29772D7F29882D802B992D04
:100AD000912B209397013093980140939901509363
:100AE0009A0160939B0170939C0180939D01909368
:100AF0009E01E981EF5FE983E981E23008F495CF57
:100B00000F90DF91CF911F910F91FF90EF90DF90A9
:100B1000CF90BF90AF909F908F907F906F905F909D
:100B20004F903F902F9008952F923F924F925F9257
:100B30006F927F928F929F92AF92BF92CF92DF92ED
:100B4000EF92FF920F931F93CF93DF93CDB7DEB752
:100B500061970FB6F894DEBF0FBECDBF209197010D
:100B6000309198014091990150919A0160919B01B7
:100B700070919C0180919D0190919E01222E209464
:100B8000332E3094442E4094552E5094662E60940B
:100B9000772E7094882E8094992E909420911B012A
:100BA00030911C0140911D0150911E0160911F0167
:100BB000709120018091210190912201A22CA2220A
:100BC000B32CB322C42CC422D52CD522E62CE62289
:100BD000F72CF722082D0823192D1923A0921B01A9
:100BE000B0921C01C0921D01D0921E01E0921F0123
:100BF000F0922001009321011093220183ED90E0F7
:100C00000E94650B81E0898359C08981282F30E0DB
:100C100081E090E002C0880F991F2A95E2F79B833C
:100C20008A83892F880F880B8C838D838E838F8393
:100C30008887898720911B0130911C0140911D01FB
:100C400050911E0160911F0170912001809121013E
:100C500090912201EA81E223EA87EB81E323EB878B
:100C6000EC81E423EC87ED81E523ED87EE81E6233B
:100C7000EE87EF81E723EF87E885E823E88BE985B6
:100C8000E923E98B2A853B854C855D856E857F85CB
:100C900088899989A0E00E94350C69F08981882FA4
:100CA00090E0A0E0B0E041E0BC01CD010E94980BD3
:100CB00080E20E943E0B89818F5F89838981833026
:100CC00008F4A3CF0E94580B61960FB6F894DEBFCC
:100CD0000FBECDBFDF91CF911F910F91FF90EF908D
:100CE000DF90CF90BF90AF909F908F907F906F904C
:100CF0005F904F903F902F9008950F931F93CF9345
:100D0000DF93CDB7DEB763970FB6F894DEBF0FBEA3
:100D1000CDBF998B888B7B8B6A8B85E290E025E237
:100D200030E0F90120812E7FFC01208302C00E9467
:100D30000C0A83E290E0FC018081882F90E08870AB
:100D40009927892BA1F788899989892B21F483E434
:100D500091E0998B888B8A899B89892B61F440E289
:100D600050E060E070E083E691E00E94870D83E64A
:100D700091E09B8B8A8B88899989FC0180810E94F4
:100D8000990A282F8A899B89FC012083888999895F
:100D9000FC0181810E94990A282F8A899B89FC0184
:100DA000218319821AC08981082F10E08981882F38
:100DB00090E028893989820F931F0296FC01808177
:100DC0000E94990A282F8A899B89800F911F029679
:100DD000FC01208389818F5F89838981282F30E0FE
:100DE00088899989FC018081882F90E001972817D4
:100DF0003907CCF28A899B89FC0191818981891705
:100E000090F285E290E025E230E0F9012081216056
:100E1000FC012083000083E290E0FC018081882FA8
:100E200090E088709927892BB1F380E090E0A0E8EA
:100E3000BFE38A839B83AC83BD8320E030E04AE735
:100E400055E46A817B818C819D810E94E90CDC01E3
:100E5000CB018E839F83A887B98720E030E040E8EC
:100E60005FE36E817F81888599850E94630C88236A
:100E70002CF481E090E09B878A873FC020E03FEF21
:100E80004FE757E46E817F81888599850E94E40C45
:100E900018164CF520E030E040E251E46A817B8195
:100EA0008C819D810E94E90CDC01CB01BC01CD014C
:100EB0000E94680CDC01CB019B878A870FC080E908
:100EC00091E09D878C878C859D850197F1F79D87A3
:100ED0008C878A859B8501979B878A878A859B85D6
:100EE000892B69F714C06E817F81888599850E945E
:100EF000680CDC01CB019B878A878A859B859F874D
:100F00008E878E859F850197F1F79F878E8780E07A
:100F100063960FB6F894DEBF0FBECDBFDF91CF91C1
:100F20001F910F9108952F923F924F925F926F926F
:100F30007F928F929F92AF92BF92CF92DF92EF9269
:100F4000FF920F931F93CF93DF93CDB7DEB76397D5
:100F50000FB6F894DEBF0FBECDBF9B838A838A8114
:100F60009B81FC018181882309F492C18A819B8144
:100F7000FC018281882F90E08638910509F45EC0DB
:100F8000873891053CF48438910569F085389105DE
:100F9000E1F05DC18838910509F455C08C389105A0
:100FA00009F423C154C18A819B81FC0183818F3064
:100FB00059F48A819B81FC018481882329F48CEA7D
:100FC00090E00E94650B64C163C182E080931801C8
:100FD00080EE90E00E94650B198218C08981882FED
:100FE00090E027E030E0A901481B590BCA012A8193
:100FF0003B81820F931F0296FC0180810E94F40BBB
:101000008AE30E943E0B89818F5F898389818530C5
:1010100028F38981882F90E028E030E0A901481B5F
:10102000590BCA012A813B81820F931F0296FC0152
:1010300080810E94F40B0E94580B2AC10E949405E3
:101040001092180125C110921B0110921C011092E0
:101050001D0110921E0110921F011092200110928A
:1010600021011092220119825DC08981882F90E0B0
:101070009C012F5F3F4F8A819B81820F931F0296B5
:10108000FC018081282F30E08981882F90E0880F33
:10109000991F880F991F880F991FA90102C0440F3B
:1010A000551F8A95E2F7CA019D838C83892F880F8B
:1010B000880B8E838F83888789878A878B87209187
:1010C0001B0130911C0140911D0150911E01609146
:1010D0001F01709120018091210190912201AC802B
:1010E000A22ABD80B32ACE80C42ADF80D52AE88414
:1010F000E62AF984F72A0A85082B1B85192BA0926A
:101100001B01B0921C01C0921D01D0921E01E09201
:101110001F01F09220010093210110932201898187
:101120008F5F89838981883008F49FCF83ED90E0B9
:101130000E94650B81E0898351C08981282F30E0AE
:1011400081E090E002C0880F991F2A95E2F79D8701
:101150008C87892F880F880B8E878F87888B898B48
:101160008A8B8B8B20911B0130911C0140911D01BA
:1011700050911E0160911F01709120018091210109
:10118000909122012C8422223D8433224E844422D9
:101190005F84552268886622798877228A88882227
:1011A0009B889922222D332D442D552D662D772D88
:1011B000882D992DA0E00E94350C69F08981882F37
:1011C00090E0A0E0B0E041E0BC01CD010E94980BAE
:1011D00080E20E943E0B89818F5F89838981833001
:1011E00008F4ABCF0E94580B53C08A819B81FC014D
:1011F0008381813059F58A819B81FC018481882318
:1012000099F087E490E02A813B81F9012481FC0177
:10121000208384E490E023E8FC01208385E490E0CF
:1012200024E0FC01208312C084E490E0FC011082E1
:1012300085E490E0FC0110828BE290E02BE230E04C
:10124000F90120812F7BFC01208322C021C082EF85
:1012500090E00E94650B198212C080E20E943E0B52
:101260008981882F90E02A813B81820F931F02960B
:10127000FC0180810E94F40B89818F5F89838A81C0
:101280009B81FC0191818981891738F30E94580B59
:1012900063960FB6F894DEBF0FBECDBFDF91CF913E
:1012A0001F910F91FF90EF90DF90CF90BF90AF9084
:1012B0009F908F907F906F905F904F903F902F9076
:1012C0000895AF92BF92CF92DF92EF92FF920F9369
:1012D0001F93CF93DF931F92CDB7DEB78983209101
:1012E0001B0130911C0140911D0150911E01609124
:1012F0001F01709120018091210190912201E22F24
:10130000E470AE2EE32FE070BE2EE42FE070CE2E00
:10131000E52FE070DE2EE62FE070EE2EE72FE07076
:10132000FE2E082F0070192F10702A2D3B2D4C2DEA
:101330005D2D6E2D7F2D802F912FA0E00E94350C0A
:1013400031F483EC90E00E94650B8FEF1BC040E20C
:1013500050E060E070E083E291E00E94870D83E05E
:101360008093230185E18093240182E0809325010D
:1013700089818093260160E070E083E291E00E9421
:101380007D0680E00F90DF91CF911F910F91FF902C
:10139000EF90DF90CF90BF90AF900895CF93DF9301
:1013A00000D01F92CDB7DEB79B838A838BE50E9466
:1013B0003E0B8A819B81FC018181882F90E0A0E017
:1013C000B0E042E0BC01CD010E94980B8DE50E9487
:1013D0003E0B198212C080E20E943E0B8981882F49
:1013E00090E02A813B81820F931F0296FC0180814D
:1013F0000E94F40B89818F5F89838A819B81FC0124
:1014000091818981891738F30E94580B0F900F90B2
:101410000F90DF91CF910895CF93DF9300D0CDB798
:10142000DEB740E250E060E070E083E291E00E94CD
:10143000870D40E250E060E070E08FE991E00E94AB
:10144000870D81E0809323018CE08093240160E08C
:1014500070E083E291E00E947D066FE971E080E038
:1014600090E00E947D068091A40189838091A5016E
:101470008A838CE091E00E94650B89819A81969520
:10148000879596958795CC01A0E0B0E041E0BC013E
:10149000CD010E94980B8EE20E943E0B89819A81B9
:1014A000837099278130910581F08130910530F06A
:1014B0008230910589F00397B1F01CC080E30E944F
:1014C0003E0B80E30E943E0B15C082E30E943E0B60
:1014D00085E30E943E0B0EC085E30E943E0B80E335
:1014E0000E943E0B07C087E30E943E0B85E30E94EB
:1014F0003E0B00008AE191E00E94650B0F900F9077
:10150000DF91CF910895CF93DF93CDB7DEB784E21B
:1015100090E02DE2FC01208385E290E02FEFFC01BA
:1015200020838CE490E021E7FC012083DF91CF91C0
:101530000895CF93DF931F92CDB7DEB789838EE4F2
:1015400090E02981FC01208300008DE490E0FC0103
:1015500080818823D4F78EE490E0FC0180810F9095
:10156000DF91CF910895CF93DF93CDB7DEB78DECA8
:1015700090E0FC0110828CEC90E027E6FC012083D7
:1015800089EC90E028E1FC0120838AEC90E02EE0D9
:10159000FC012083DF91CF910895CF93DF93CDB7E6
:1015A000DEB72F970FB6F894DEBF0FBECDBF6E83A8
:1015B0007F83888799875B874A878E819F81A885EB
:1015C000B985BB237CF48E819F81A885B985B095B0
:1015D000A095909581959F4FAF4FBF4F8E839F836E
:1015E000A887B987198232C08E819F81A885B98565
:1015F0002AE030E040E050E0BC01CD010E94160C32
:10160000DA01C9018A839B83AC83BD838981082E5B
:10161000000C990B2A853B85820F931F3E812A81FE
:10162000220F422F440F440F240F432F421B242F1D
:10163000205DFC0120838A819B81AC81BD818E83EA
:101640009F83A887B98789818F5F898389818A3041
:1016500044F48E819F81A885B985892B8A2B8B2B99
:1016600019F689818150898389812F960FB6F89464
:10167000DEBF0FBECDBFDF91CF910895CF93DF9333
:101680001F92CDB7DEB78983000088EC90E0FC01A3
:101690008081882F90E080729927892BB1F38EEC9E
:1016A00090E02981FC0120830F90DF91CF91089574
:1016B000CF93DF93CDB7DEB78DE00E943E0B8AE07B
:1016C0000E943E0BDF91CF910895CF93DF93CDB76A
:1016D000DEB728970FB6F894DEBF0FBECDBF988750
:1016E0008F8311C08F8198859C012F5F3F4F388772
:1016F0002F839D838C838C819D81FC0184918E83BB
:101700008E810E943E0B8F8198859A83898389817F
:101710009A81FC0184918B838B81882319F7289609
:101720000FB6F894DEBF0FBECDBFDF91CF91089505
:10173000CF93DF93CDB7DEB760970FB6F894DEBFD7
:101740000FBECDBF6C877D878E879F87488B8C852A
:101750009D85AE85BF85BB2394F48DE20E943E0B30
:101760008C859D85AE85BF85B095A095909581951A
:101770009F4FAF4FBF4F8C879D87AE87BF879E011E
:101780002E5F3F4F8C859D85AE85BF85A901BC012D
:10179000CD010E94CD0A898303C080E30E943E0BE5
:1017A00088898150888B988989818917B4F310C002
:1017B0008981982F91509983082E000C990B9E01D6
:1017C0002E5F3F4F820F931FFC0180810E943E0BD2
:1017D000898188236CF760960FB6F894DEBF0FBE40
:1017E000CDBFDF91CF910895CF93DF931F92CDB7F7
:1017F000DEB78983898182958F70882F90E08F7002
:1018000099278A5F9E4FFC0180810E943E0B89814F
:10181000882F90E08F7099278A5F9E4FFC0180810E
:101820000E943E0B0F90DF91CF910895052E97FBFC
:101830001EF400940E942D0C57FD07D00E94410C0D
:1018400007FC03D04EF40C942D0C50954095309528
:1018500021953F4F4F4F5F4F08959095809570951C
:1018600061957F4F8F4F9F4F08950024A7FD0094EF
:101870002A17300540055005600570058005900564
:101880000895A1E21A2EAA1BBB1BFD010DC0AA1FC1
:10189000BB1FEE1FFF1FA217B307E407F50720F0D9
:1018A000A21BB30BE40BF50B661F771F881F991F54
:1018B0001A9469F760957095809590959B01AC019D
:1018C000BD01CF0108950E94970C08F481E00895AE
:1018D0000E94C30C88F09F5798F0B92F9927B751F1
:1018E000B0F0E1F0660F771F881F991F1AF0BA95C4
:1018F000C9F714C0B13091F00E94DD0CB1E0089539
:101900000C94DD0C672F782F8827B85F39F0B93F2A
:10191000CCF3869577956795B395D9F73EF4909576
:101920008095709561957F4F8F4F9F4F0895990FC8
:101930000008550FAA0BE0E8FEEF16161706E80799
:10194000F907C0F012161306E407F50798F0621BBA
:10195000730B840B950B39F40A2661F0232B242B8F
:10196000252B21F408950A2609F4A140A6958FEFAE
:10197000811D811D089557FD9058440F551F59F042
:101980005F3F71F04795880F97FB991F61F09F3F6C
:1019900079F087950895121613061406551FF2CF95
:1019A0004695F1DF08C0161617061806991FF1CFE5
:1019B00086957105610508940895E894BB2766270C
:1019C0007727CB0197F908950E94970C08F48FEFC1
:1019D00008950E94FC0C0C946D0D0E945F0D38F070
:1019E0000E94660D20F0952311F00C94560D0C9476
:1019F0005C0D11240C94DE0C0E94BB0C70F3959FBF
:101A0000C1F3950F50E0551F629FF001729FBB27F5
:101A1000F00DB11D639FAA27F00DB11DAA1F649F91
:101A20006627B00DA11D661F829F2227B00DA11D44
:101A3000621F739FB00DA11D621F839FA00D611DCA
:101A4000221F749F3327A00D611D231F849F600DEB
:101A5000211D822F762F6A2F11249F5750409AF014
:101A6000F1F088234AF0EE0FFF1FBB1F661F771FA0
:101A7000881F91505040A9F79E3F510580F00C946B
:101A8000560D0C94DE0C5F3FE4F3983ED4F386953C
:101A900077956795B795F795E7959F5FC1F7FE2B0B
:101AA000880F911D9695879597F9089597F99F67E7
:101AB00080E870E060E008959FEF80EC08950024D6
:101AC0000A941616170618060906089500240A94A3
:101AD00012161306140605060895092E0394000C29
:101AE00011F4882352F0BB0F40F4BF2B11F460FFB8
:101AF00004C06F5F7F4F8F4F9F4F0895FB01DC0144
:101B000002C005900D9241505040D8F70895DC0175
:101B100001C06D9341505040E0F7089545325105A2
:101B200020F4423010F00C94990DFB011082CB018F
:101B30000895BB274A3031F4992322F4BDE29095F1
:101B400081959F4F0C94A50DBB27FB015527AA2714
:101B5000880F991FAA1FA41710F0A41B839550513A
:101B6000B9F7A05DAA3308F0A95DA193009779F7B2
:101B7000B111B1931192CB010C94BE0DDC01FC01AB
:101B8000672F71917723E1F7329704C07C916D93B1
:101B900070836291AE17BF07C8F30895F894FFCF22
:101BA000010800010200303132333435363738391C
:081BB0006162636465660000D8
:00000001FF
