:100000000C94C9010C94E6010C94E6010C94E601F1
:100010000C94E6010C94E6010C94E6010C94E601C4
:100020000C94E6010C94E6010C94E6010C94E601B4
:100030000C94E6010C94E6010C94E6010C94E601A4
:100040000C94E6010C94E6010C94E6010C94E60194
:100050000C94E6010C94E6010C94E6010C94E60184
:100060000C94E6010C94E6010C94E6010C94E60174
:100070000C94E6010C94E6010C94E6010C94E60164
:100080000C94E6010C94E6010C94E6010C94E60154
:100090000C94E6010C94E6010C94E6010C94E60144
:1000A0000C94E6010C94E6010C94E60100070600AE
:1000B00000030242070000000000000000000000F2
:1000C00000000000000000000000000000001F060B
:1000D0001000010000000000020002010100000603
:1000E0000001000000000000000000000000001FF0
:1000F00006101C00000000000000000000000000CE
:100100000000000000000000000050039001FF000C
:100110001F061038FFFF02580A050000000000000B
:1001200000100000000000000000000000000000BF
:100130000005061054000000000000000000000050
:1001400000000000000000000000000000000000AF
:1001500000001F0620000404020200012800010024
:1001600018040405050002280301020300002A0404
:100170000414001F06201C0B00032A0001415652E4
:10018000206E524638303031636F6D000000000041
:10019000000404001F06203805050004280301029E
:1001A0000500012A0604030200052A0101000004DB
:1001B00004050500001F062054062803010207005D
:1001C000042A0604090800072A04010600060000A4
:1001D00000FFFF0404001F06207002020008280030
:1001E00001011804041010000928000181F5743879
:1001F000B32071AB434C001F06208C96C601A0159E
:100200004204041313000A280301060B0081F5744D
:1002100038B32071AB434C001F0620A896C601C01E
:10022000154246140201000BC0010200040413131E
:10023000000C280301100D00001F0620C481F57476
:1002400038B32071AB434C96C602C015421600026B
:1002500001000DC00202004614001F0620E0030248
:10026000000E290201000004041313000F280301EB
:1002700002100081F57438B32071001A0620FCAB1F
:10028000434C96C600CF1542060405040010CF006B
:1002900002B00BFACE00000000000000170640007C
:1002A000C00102000804000B0000C00202000204AA
:1002B000000D000E000000000000000000130650BA
:1002C0000081F57438B32071AB434C96C60000151D
:1002D00042000000000000000000000000000906CD
:1002E00060000000000000000000000000000000AE
:1002F00000000000000000000000000000000006F8
:1003000006F0000348EC00000000000000000000C0
:1003100000000000000000000000000000000020BD
:10032000430D0A0054656D70657261747572653AAB
:100330002000526563656976656420756E68616E3C
:10034000646C656420646174613A2000436F6E6E72
:10035000656374696F6E2066726F6D3A20004F702E
:10036000656E2050697065733A2000506970652091
:100370006E6F74206F70656E0D0A00537461727435
:10038000696E67206164766572746973696E670D62
:100390000A0011241FBECFEFDAE0DEBFCDBF11E0AF
:1003A000A0E0B1E0ECEAFDE002C005900D92A231C0
:1003B000B107D9F721E0A2E1B1E001C01D92A93B4C
:1003C000B207E1F70E940D020C94D4060C940000D1
:1003D00080917A00806480937A0080917A0086FD13
:1003E000FCCF809179000895CF93DF93EC01899140
:1003F000882319F00E949905FACF80E2DF91CF910E
:100400000C94990581E280937C0087E880937A00C0
:1004100080E280937E0008950895CF93DF93CDB757
:10042000DEB760970FB6F894DEBF0FBECDBF0E9457
:100430008D050E9402020E94800541E060E070E0AC
:10044000CB010E94B7058BE60E9499050E94E80146
:100450004AE0BE016F5F7F4F90E00E949F06CE0191
:1004600001960E94F4012FEF81EE94E0215080402C
:100470009040E1F700C00000E6CF809191018460D8
:10048000809391010895709191017095609192010E
:100490006095509193015095409194014095309111
:1004A0009501309520919601209590919701909516
:1004B000809198018095E09172017E237093720182
:1004C00070917301672360937301609174015623E7
:1004D00050937401509175014523409375014091EB
:1004E00076013423309376013091770123232093D2
:1004F000770120917801922390937801909179016E
:100500008923809379018EE593E00E94A6052091CE
:100510007201227030E040E050E060E070E080E086
:1005200090E0A0E00E94680651F041E061E070E0D8
:1005300080E090E00E94B70580E20E94990520913A
:100540007201247030E040E050E060E070E080E054
:1005500090E0A0E00E94680651F041E062E070E0A7
:1005600080E090E00E94B70580E20E9499050C941B
:10057000A005DF92EF92FF920F931F93CF93DF932B
:100580008C01EB012A981999FECF0115110511F480
:1005900002E311E0209741F480E2E2E1F1E0DF01C3
:1005A0001D928A95E9F7EF01F80180810E94870585
:1005B0008883D80111968C910E9487058983D12C5C
:1005C000ED2CF12CF801808190E00197E816F906F6
:1005D00064F4F801EE0DFF1D82810E948705FE0183
:1005E000EE0DFF1D8283D394EBCF8981D81688F35B
:1005F0002A9A199BFECF8FE99FE00197F1F700C07F
:10060000000080E0DF91CF911F910F91FF90EF905C
:10061000DF900895E2E5F1E080E2DF011D928A9526
:10062000E9F785E080838FE0818380E8848360E060
:1006300070E0CF010C94B902EF92FF920F931F93D9
:10064000CF93DF93FC012181222309F4D6C0EC0172
:1006500082818638D9F1A0F48438C1F0853809F058
:10066000B9C082E080937C018CE493E00E94A605EF
:100670008E01065F1F4F7E01F5E0EF0EF11C17C0E3
:10068000883849F18C3809F495C0A4C083818F3033
:1006900009F0B3C084818111B0C08BE793E0DF9192
:1006A000CF911F910F91FF90EF900C94A605F80148
:1006B00082918F010E9435068AE30E9499050E15EA
:1006C0001F05A9F78D810E9435066CC00E94430268
:1006D00010927C0192C0239640E050E010E0B0E020
:1006E000A0E0F0E0E0E070E060E030E0899190E0D0
:1006F000042E02C0880F991F0A94E2F7292F220FB7
:10070000220B182BB92BA22BF22BE22B722B622B74
:10071000322B485F5F4F4034510541F7109372010F
:10072000B0937301A0937401F0937501E093760187
:100730007093770160937801309379018EE593E0AF
:100740000E94A60520917201227030E040E050E046
:1007500060E070E080E090E0A0E00E94680651F068
:1007600041E061E070E080E090E00E94B70580E247
:100770000E94990520917201247030E040E050E021
:1007800060E070E080E090E0A0E00E94680651F038
:1007900041E062E070E080E090E00E94B70580E216
:1007A0000E949905DF91CF911F910F91FF90EF90DB
:1007B0000C94A0058381813001F58481882331F078
:1007C00087BD83E884BD84E085BD17C014BC15BC1B
:1007D0005E9813C082E393E00E94A60510E0898131
:1007E000181700F780E20E949905FE01E10FF11D44
:1007F00082810E9435061F5FF2CFDF91CF911F915A
:100800000F91FF90EF900895CF93DF93E82F209101
:100810007201247030E040E050E060E070E080E081
:1008200090E0A0E00E94680631F48BE693E00E941D
:10083000A6058FEF18C080E2A2E5B1E0ED011992A4
:100840008A95E9F783E08093520185E18093530113
:1008500082E080935401E093550160E070E0CD01A7
:100860000E94B90280E0DF91CF9108950F931F930A
:10087000CF938C018BE50E949905F801618170E0AE
:1008800080E090E042E00E94B7058DE50E94990566
:10089000C0E0F8018181C81758F480E20E949905F0
:1008A000F801EC0FF11D82810E943506CF5FF1CF78
:1008B000CF911F910F910C94A005FF920F931F935E
:1008C000CF93DF93289A2FEF81EE94E02150804060
:1008D0009040E1F700C0000080E2E9E9F1E0DF01CB
:1008E0001D928A95E9F7BF0180E090E00E94B9026D
:1008F00080919B01813809F08EC080919D0181110A
:100900008AC080919C0180937B0190919E0190937D
:100910007A01823009F081C0C0E0D0E009E911E03D
:1009200080E2F82EF8012F2D11922A95E9F740E286
:1009300050E0BE0163557F4F82E591E00E9496062C
:1009400069E971E082E591E00E94B90280919A0123
:10095000811105C089E991E00E94360413C089E93C
:1009600091E00E94360480919B01843809F057C0C1
:1009700080919C01863009F052C080919D018130A8
:1009800009F04DC0A196C33782E0D80759F6C9E9EE
:10099000D1E010E2DE01E12F1D92EA95E9F769E965
:1009A00071E080E090E00E94B90289E991E00E9444
:1009B000360480919B018438B1F580919C0186308A
:1009C00091F580919D01813029F3823061F5C9E96B
:1009D000D1E010E2DE01E12F1D92EA95E9F769E925
:1009E00071E080E090E00E94B90280919B01813823
:1009F00089F789E991E00E94360480919D01811177
:100A000010C080919C0180937B0180919E01809316
:100A10007A0180E009C08FEF07C08EEF05C08DEF2F
:100A200003C08BEF01C08CEFDF91CF911F910F912D
:100A3000FF90089528988FE39CE90197F1F700C093
:100A4000000010927C010C945D040F931F93CF93D0
:100A5000DF9380E2E2E5F1E0DF01982F1D929A95A5
:100A6000E9F7E9E9F1E0DF011D928A95E9F781E014
:100A7000809352018CE08093530160E070E082E546
:100A800091E00E94B90269E971E080E090E00E9483
:100A9000B90200919E0110919F0184E293E00E94AF
:100AA000A605E801BE01769567957695679580E085
:100AB00090E041E00E94B7058EE20E949905C37064
:100AC000DD27C230D10549F0C330D10559F0219757
:100AD00011F080E303C082E306C085E30E9499051C
:100AE00080E304C087E30E94990585E30E9499058D
:100AF0008FE193E0DF91CF911F910F910C94A605A8
:100B00008DE284B98FEF85B981E78CBD08958EBDE4
:100B10000DB407FEFDCF8EB508951092CD0087E687
:100B20008093CC0088E18093C9008EE08093CA0056
:100B300008959091C80095FFFCCF8093CE00089552
:100B40008DE00E9499058AE00C949905CF93DF937C
:100B5000EC01CE01FE012491222331F02196FC010B
:100B600084910E949905F5CFDF91CF9108954F921E
:100B70005F926F927F928F929F92AF92BF92CF922D
:100B8000DF92EF92FF920F931F93CF93DF93CDB736
:100B9000DEB72A970FB6F894DEBF0FBECDBF6B014C
:100BA0007C01842E97FF0BC08DE20E949905F09482
:100BB000E094D094C094C11CD11CE11CF11CCE0166
:100BC00001965C01912C8C018AE0482E512C612CFD
:100BD000712CC114D104E104F104B9F0C701B601CC
:100BE000A30192010E94490680E38C0DC82E9AE071
:100BF000299FC0181124F501C1925F019394FAE076
:100C00009F1619F069017A01E4CFFF24FA94F90CD8
:100C10008A94F81424F480E30E949905F9CFF7FC34
:100C20000DC0EE24EA94EF0CF801EF0DF11DF7FC76
:100C3000FA9580810E949905FE2CF1CF2A960FB675
:100C4000F894DEBF0FBECDBFDF91CF911F910F9102
:100C5000FF90EF90DF90CF90BF90AF909F908F90DC
:100C60007F906F905F904F900895CF93C82FE82F9B
:100C7000E295EF70F0E0E050FF4F80810E9499050F
:100C8000CF70EC2FF0E0E050FF4F8081CF910C94BB
:100C90009905052E97FB1EF400940E94600657FDEF
:100CA00007D00E94740607FC03D04EF40C94600633
:100CB00050954095309521953F4F4F4F5F4F089588
:100CC00090958095709561957F4F8F4F9F4F0895B8
:100CD0000024A7FD00942A17300540055005600543
:100CE0007005800590050895A1E21A2EAA1BBB1B72
:100CF000FD010DC0AA1FBB1FEE1FFF1FA217B307E8
:100D0000E407F50720F0A21BB30BE40BF50B661FFD
:100D1000771F881F991F1A9469F7609570958095C1
:100D200090959B01AC01BD01CF010895FB01DC0151
:100D300002C005900D9241505040D8F70895BB274E
:100D40004A3031F4992322F4BDE2909581959F4F6A
:100D50000C94AB06BB27FB015527AA27880F991FC8
:100D6000AA1FA41710F0A41B83955051B9F7A05DDA
:100D7000AA3308F0A95DA193009779F7B111B19357
:100D80001192CB010C94C406DC01FC01672F719118
:100D90007723E1F7329704C07C916D937083629161
:0C0DA000AE17BF07C8F30895F894FFCF0A
:100DAC0030313233343536373839616263646566D5
:020DBC00000035
:00000001FF
