:100000000C9456000C9460000C9460000C946000FA
:100010000C9460000C9460000C9460000C946000E0
:100020000C9460000C9460000C9460000C946000D0
:100030000C9460000C9460000C9460000C946000C0
:100040000C9460000C9460000C9460000C946000B0
:100050000C9460000C9460000C9460000C946000A0
:100060000C9460000C9460000C9460000C94600090
:100070000C9460000C9460000C9460000C94600080
:100080000C9460000C9460000C9460000C94600070
:100090000C9460000C9460000C9460000C94600060
:1000A0000C9460000C9460000C94600011241FBE3E
:1000B000CFEFDAE0DEBFCDBF0E9492000C94A40027
:1000C0000C940000EAE7F0E080818064808308956A
:1000D00085E480937C008FE880937A0080E28093AF
:1000E0007E000C94620080917A00806480937A0094
:1000F00080917A0086FDFCCF8091790008958093ED
:10010000CE009EB180E489278EB908951092CD006B
:1001100087E68093CC0088E08093C9008EE08093CE
:10012000CA0008956E9A76980E94860084E790E04F
:100130000E947F002FEF83ED90E32150804090409C
:0C014000E1F700C00000F2CFF894FFCF00
:00000001FF
